{
    "contractName": "MecToken",
    "abi": [
        {
            "inputs": [
                {
                    "internalType": "uint256",
                    "name": "_initialSupply",
                    "type": "uint256"
                }
            ],
            "stateMutability": "nonpayable",
            "type": "constructor"
        },
        {
            "anonymous": false,
            "inputs": [
                {
                    "indexed": true,
                    "internalType": "address",
                    "name": "_owner",
                    "type": "address"
                },
                {
                    "indexed": true,
                    "internalType": "address",
                    "name": "_spender",
                    "type": "address"
                },
                {
                    "indexed": false,
                    "internalType": "uint256",
                    "name": "_value",
                    "type": "uint256"
                }
            ],
            "name": "Approval",
            "type": "event"
        },
        {
            "anonymous": false,
            "inputs": [
                {
                    "indexed": true,
                    "internalType": "address",
                    "name": "_from",
                    "type": "address"
                },
                {
                    "indexed": true,
                    "internalType": "address",
                    "name": "_to",
                    "type": "address"
                },
                {
                    "indexed": false,
                    "internalType": "uint256",
                    "name": "_value",
                    "type": "uint256"
                }
            ],
            "name": "Transfer",
            "type": "event"
        },
        {
            "inputs": [
                {
                    "internalType": "address",
                    "name": "",
                    "type": "address"
                },
                {
                    "internalType": "address",
                    "name": "",
                    "type": "address"
                }
            ],
            "name": "allowance",
            "outputs": [
                {
                    "internalType": "uint256",
                    "name": "",
                    "type": "uint256"
                }
            ],
            "stateMutability": "view",
            "type": "function"
        },
        {
            "inputs": [
                {
                    "internalType": "address",
                    "name": "_spender",
                    "type": "address"
                },
                {
                    "internalType": "uint256",
                    "name": "_value",
                    "type": "uint256"
                }
            ],
            "name": "approve",
            "outputs": [
                {
                    "internalType": "bool",
                    "name": "success",
                    "type": "bool"
                }
            ],
            "stateMutability": "nonpayable",
            "type": "function"
        },
        {
            "inputs": [
                {
                    "internalType": "address",
                    "name": "",
                    "type": "address"
                }
            ],
            "name": "balanceOf",
            "outputs": [
                {
                    "internalType": "uint256",
                    "name": "",
                    "type": "uint256"
                }
            ],
            "stateMutability": "view",
            "type": "function"
        },
        {
            "inputs": [],
            "name": "name",
            "outputs": [
                {
                    "internalType": "string",
                    "name": "",
                    "type": "string"
                }
            ],
            "stateMutability": "view",
            "type": "function"
        },
        {
            "inputs": [],
            "name": "standard",
            "outputs": [
                {
                    "internalType": "string",
                    "name": "",
                    "type": "string"
                }
            ],
            "stateMutability": "view",
            "type": "function"
        },
        {
            "inputs": [],
            "name": "symbol",
            "outputs": [
                {
                    "internalType": "string",
                    "name": "",
                    "type": "string"
                }
            ],
            "stateMutability": "view",
            "type": "function"
        },
        {
            "inputs": [],
            "name": "totalSupply",
            "outputs": [
                {
                    "internalType": "uint256",
                    "name": "",
                    "type": "uint256"
                }
            ],
            "stateMutability": "view",
            "type": "function"
        },
        {
            "inputs": [
                {
                    "internalType": "address",
                    "name": "_to",
                    "type": "address"
                },
                {
                    "internalType": "uint256",
                    "name": "_value",
                    "type": "uint256"
                }
            ],
            "name": "transfer",
            "outputs": [
                {
                    "internalType": "bool",
                    "name": "success",
                    "type": "bool"
                }
            ],
            "stateMutability": "nonpayable",
            "type": "function"
        }
    ],
    "bytecode": "60c0604052600960808190526826b2b1902a37b5b2b760b91b60a090815261002a91600091906100d2565b50604080518082019091526004808252636d546f6b60e01b6020909201918252610056916001916100d2565b5060408051808201909152600e8082526d04d656320546f6b656e2076312e360941b602090920191825261008c916002916100d2565b5034801561009957600080fd5b5060405161066b38038061066b8339810160408190526100b89161016b565b3360009081526004602052604090208190556003556101be565b8280546100de90610183565b90600052602060002090601f0160209004810192826101005760008555610146565b82601f1061011957805160ff1916838001178555610146565b82800160010185558215610146579182015b8281111561014657825182559160200191906001019061012b565b50610152929150610156565b5090565b5b808211156101525760008155600101610157565b60006020828403121561017c578081fd5b5051919050565b600181811c9082168061019757607f821691505b602082108114156101b857634e487b7160e01b600052602260045260246000fd5b50919050565b61049e806101cd6000396000f3fe608060405234801561001057600080fd5b50600436106100885760003560e01c806370a082311161005b57806370a08231146100ed57806395d89b411461010d578063a9059cbb14610115578063dd62ed3e1461012857600080fd5b806306fdde031461008d578063095ea7b3146100ab57806318160ddd146100ce5780635a3b7e42146100e5575b600080fd5b610095610153565b6040516100a29190610395565b60405180910390f35b6100be6100b936600461036c565b6101e1565b60405190151581526020016100a2565b6100d760035481565b6040519081526020016100a2565b610095610239565b6100d76100fb366004610319565b60046020526000908152604090205481565b610095610246565b6100be61012336600461036c565b610253565b6100d761013636600461033a565b600560209081526000928352604080842090915290825290205481565b6000805461016090610417565b80601f016020809104026020016040519081016040528092919081815260200182805461018c90610417565b80156101d95780601f106101ae576101008083540402835291602001916101d9565b820191906000526020600020905b8154815290600101906020018083116101bc57829003601f168201915b505050505081565b6000826001600160a01b0316336001600160a01b03167f8c5be1e5ebec7d5bd14f71427d1e84f3dd0314c0f7b2291e5b200ac8c7c3b9258460405161022891815260200190565b60405180910390a350600192915050565b6002805461016090610417565b6001805461016090610417565b3360009081526004602052604081205482111561026f57600080fd5b336000908152600460205260408120805484929061028e908490610400565b90915550506001600160a01b038316600090815260046020526040812080548492906102bb9084906103e8565b90915550506040518281526001600160a01b0384169033907fddf252ad1be2c89b69c2b068fc378daa952ba7f163c4a11628f55a4df523b3ef90602001610228565b80356001600160a01b038116811461031457600080fd5b919050565b60006020828403121561032a578081fd5b610333826102fd565b9392505050565b6000806040838503121561034c578081fd5b610355836102fd565b9150610363602084016102fd565b90509250929050565b6000806040838503121561037e578182fd5b610387836102fd565b946020939093013593505050565b6000602080835283518082850152825b818110156103c1578581018301518582016040015282016103a5565b818111156103d25783604083870101525b50601f01601f1916929092016040019392505050565b600082198211156103fb576103fb610452565b500190565b60008282101561041257610412610452565b500390565b600181811c9082168061042b57607f821691505b6020821081141561044c57634e487b7160e01b600052602260045260246000fd5b50919050565b634e487b7160e01b600052601160045260246000fdfea2646970667358221220f5e432ede80fa265894073c95f7f3c1ad1fa7f05923a5e8237cacf5c13b9e88964736f6c63430008040033",
    "sourcePath": "/media/mayon/Data/1Mayoncode/BLOCKCHAIN/Learn 7 hour one/token_sale/contracts/MayToken.sol",
    "compiler": {
        "name": "solc",
        "version": "0.8.4+commit.c7e474f2"
    },
    "functionHashes": {
        "allowance(address,address)": "dd62ed3e",
        "approve(address,uint256)": "095ea7b3",
        "balanceOf(address)": "70a08231",
        "name()": "06fdde03",
        "standard()": "5a3b7e42",
        "symbol()": "95d89b41",
        "totalSupply()": "18160ddd",
        "transfer(address,uint256)": "a9059cbb"
    },
    "gasEstimates": {
        "creation": {
            "codeDepositCost": "236400",
            "executionCost": "infinite",
            "totalCost": "infinite"
        },
        "external": {
            "allowance(address,address)": "infinite",
            "approve(address,uint256)": "2284",
            "balanceOf(address)": "1219",
            "name()": "infinite",
            "standard()": "infinite",
            "symbol()": "infinite",
            "totalSupply()": "1040",
            "transfer(address,uint256)": "45129"
        }
    }
}